{
  "contractName": "OrganFactory",
  "abi": [
    {
      "constant": true,
      "inputs": [
        {
          "name": "",
          "type": "uint256"
        }
      ],
      "name": "organs",
      "outputs": [
        {
          "name": "name",
          "type": "string"
        },
        {
          "name": "donorId",
          "type": "uint256"
        },
        {
          "name": "refcode",
          "type": "uint256"
        },
        {
          "name": "hospitalId",
          "type": "uint256"
        },
        {
          "name": "isPurchased",
          "type": "bool"
        }
      ],
      "payable": false,
      "stateMutability": "view",
      "type": "function"
    },
    {
      "anonymous": false,
      "inputs": [],
      "name": "OrganDonated",
      "type": "event"
    },
    {
      "constant": false,
      "inputs": [
        {
          "name": "_name",
          "type": "string"
        },
        {
          "name": "_donorId",
          "type": "uint256"
        },
        {
          "name": "_refcode",
          "type": "uint256"
        },
        {
          "name": "_hospitalId",
          "type": "uint256"
        },
        {
          "name": "_isPurchased",
          "type": "bool"
        }
      ],
      "name": "donateOrgan",
      "outputs": [
        {
          "name": "",
          "type": "uint256"
        }
      ],
      "payable": false,
      "stateMutability": "nonpayable",
      "type": "function"
    },
    {
      "constant": true,
      "inputs": [
        {
          "name": "_id",
          "type": "uint256"
        }
      ],
      "name": "getOrgan",
      "outputs": [
        {
          "name": "",
          "type": "string"
        },
        {
          "name": "",
          "type": "uint256"
        },
        {
          "name": "",
          "type": "uint256"
        },
        {
          "name": "",
          "type": "uint256"
        },
        {
          "name": "",
          "type": "bool"
        }
      ],
      "payable": false,
      "stateMutability": "view",
      "type": "function"
    },
    {
      "constant": true,
      "inputs": [
        {
          "name": "_id",
          "type": "uint256"
        }
      ],
      "name": "getIsPurchased",
      "outputs": [
        {
          "name": "",
          "type": "bool"
        }
      ],
      "payable": false,
      "stateMutability": "view",
      "type": "function"
    },
    {
      "constant": false,
      "inputs": [
        {
          "name": "_id",
          "type": "uint256"
        },
        {
          "name": "_isPurchased",
          "type": "bool"
        }
      ],
      "name": "setIsPurchased",
      "outputs": [],
      "payable": false,
      "stateMutability": "nonpayable",
      "type": "function"
    },
    {
      "constant": true,
      "inputs": [],
      "name": "getAllOrgans",
      "outputs": [
        {
          "components": [
            {
              "name": "name",
              "type": "string"
            },
            {
              "name": "donorId",
              "type": "uint256"
            },
            {
              "name": "refcode",
              "type": "uint256"
            },
            {
              "name": "hospitalId",
              "type": "uint256"
            },
            {
              "name": "isPurchased",
              "type": "bool"
            }
          ],
          "name": "",
          "type": "tuple[]"
        }
      ],
      "payable": false,
      "stateMutability": "view",
      "type": "function"
    }
  ],
  "bytecode": "0x608060405234801561001057600080fd5b50610c73806100206000396000f300608060405260043610610078576000357c0100000000000000000000000000000000000000000000000000000000900463ffffffff16806310742b511461007d5780634fbd241d146100be5780635d67b353146100ff578063a9af322014610128578063b9d3828d14610165578063d7043cb0146101a2575b600080fd5b34801561008957600080fd5b506100a4600480360361009f9190810190610847565b6101cd565b6040516100b5959493929190610a57565b60405180910390f35b3480156100ca57600080fd5b506100e560048036036100e09190810190610847565b610335565b6040516100f6959493929190610ab1565b60405180910390f35b34801561010b57600080fd5b5061012660048036036101219190810190610870565b61041f565b005b34801561013457600080fd5b5061014f600480360361014a91908101906107b8565b61045b565b60405161015c9190610b0b565b60405180910390f35b34801561017157600080fd5b5061018c60048036036101879190810190610847565b610524565b6040516101999190610a3c565b60405180910390f35b3480156101ae57600080fd5b506101b761055a565b6040516101c49190610a1a565b60405180910390f35b60606000806000806000868154811015156101e457fe5b906000526020600020906005020160000160008781548110151561020457fe5b90600052602060002090600502016001015460008881548110151561022557fe5b90600052602060002090600502016002015460008981548110151561024657fe5b90600052602060002090600502016003015460008a81548110151561026757fe5b906000526020600020906005020160040160009054906101000a900460ff16848054600181600116156101000203166002900480601f01602080910402602001604051908101604052809291908181526020018280546001816001161561010002031660029004801561031b5780601f106102f05761010080835404028352916020019161031b565b820191906000526020600020905b8154815290600101906020018083116102fe57829003601f168201915b505050505094509450945094509450945091939590929450565b60008181548110151561034457fe5b9060005260206000209060050201600091509050806000018054600181600116156101000203166002900480601f0160208091040260200160405190810160405280929190818152602001828054600181600116156101000203166002900480156103f05780601f106103c5576101008083540402835291602001916103f0565b820191906000526020600020905b8154815290600101906020018083116103d357829003601f168201915b5050505050908060010154908060020154908060030154908060040160009054906101000a900460ff16905085565b8060008381548110151561042f57fe5b906000526020600020906005020160040160006101000a81548160ff0219169083151502179055505050565b6000806001600060a0604051908101604052808a81526020018881526020018981526020018781526020018615158152509080600181540180825580915050906001820390600052602060002090600502016000909192909190915060008201518160000190805190602001906104d3929190610695565b5060208201518160010155604082015181600201556060820151816003015560808201518160040160006101000a81548160ff02191690831515021790555050500390508091505095945050505050565b6000808281548110151561053457fe5b906000526020600020906005020160040160009054906101000a900460ff169050919050565b60606000805480602002602001604051908101604052809291908181526020016000905b8282101561068c578382906000526020600020906005020160a06040519081016040529081600082018054600181600116156101000203166002900480601f01602080910402602001604051908101604052809291908181526020018280546001816001161561010002031660029004801561063b5780601f106106105761010080835404028352916020019161063b565b820191906000526020600020905b81548152906001019060200180831161061e57829003601f168201915b505050505081526020016001820154815260200160028201548152602001600382015481526020016004820160009054906101000a900460ff1615151515815250508152602001906001019061057e565b50505050905090565b828054600181600116156101000203166002900490600052602060002090601f016020900481019282601f106106d657805160ff1916838001178555610704565b82800160010185558215610704579182015b828111156107035782518255916020019190600101906106e8565b5b5090506107119190610715565b5090565b61073791905b8082111561073357600081600090555060010161071b565b5090565b90565b60006107468235610bd0565b905092915050565b600082601f830112151561076157600080fd5b813561077461076f82610b53565b610b26565b9150808252602083016020830185838301111561079057600080fd5b61079b838284610be6565b50505092915050565b60006107b08235610bdc565b905092915050565b600080600080600060a086880312156107d057600080fd5b600086013567ffffffffffffffff8111156107ea57600080fd5b6107f68882890161074e565b9550506020610807888289016107a4565b9450506040610818888289016107a4565b9350506060610829888289016107a4565b925050608061083a8882890161073a565b9150509295509295909350565b60006020828403121561085957600080fd5b6000610867848285016107a4565b91505092915050565b6000806040838503121561088357600080fd5b6000610891858286016107a4565b92505060206108a28582860161073a565b9150509250929050565b60006108b782610b8c565b808452602084019350836020820285016108d085610b7f565b60005b848110156109095783830388526108eb838351610995565b92506108f682610bad565b91506020880197506001810190506108d3565b508196508694505050505092915050565b61092381610bba565b82525050565b600061093482610ba2565b808452610948816020860160208601610bf5565b61095181610c28565b602085010191505092915050565b600061096a82610b97565b80845261097e816020860160208601610bf5565b61098781610c28565b602085010191505092915050565b600060a08301600083015184820360008601526109b2828261095f565b91505060208301516109c76020860182610a0b565b5060408301516109da6040860182610a0b565b5060608301516109ed6060860182610a0b565b506080830151610a00608086018261091a565b508091505092915050565b610a1481610bc6565b82525050565b60006020820190508181036000830152610a3481846108ac565b905092915050565b6000602082019050610a51600083018461091a565b92915050565b600060a0820190508181036000830152610a718188610929565b9050610a806020830187610a0b565b610a8d6040830186610a0b565b610a9a6060830185610a0b565b610aa7608083018461091a565b9695505050505050565b600060a0820190508181036000830152610acb818861095f565b9050610ada6020830187610a0b565b610ae76040830186610a0b565b610af46060830185610a0b565b610b01608083018461091a565b9695505050505050565b6000602082019050610b206000830184610a0b565b92915050565b6000604051905081810181811067ffffffffffffffff82111715610b4957600080fd5b8060405250919050565b600067ffffffffffffffff821115610b6a57600080fd5b601f19601f8301169050602081019050919050565b6000602082019050919050565b600081519050919050565b600081519050919050565b600081519050919050565b6000602082019050919050565b60008115159050919050565b6000819050919050565b60008115159050919050565b6000819050919050565b82818337600083830152505050565b60005b83811015610c13578082015181840152602081019050610bf8565b83811115610c22576000848401525b50505050565b6000601f19601f83011690509190505600a265627a7a72305820c46caa00e8757776b3f0b706d93f079f7f327f2eb108c030f8a8c0006d4fc4d66c6578706572696d656e74616cf50037",
  "source": "pragma solidity ^0.4.19;\npragma experimental ABIEncoderV2;\n/**\n* @title Organ Factory\n* @dev TicketFactory is a contract for managing the token ownership,\n* allowing the participants to purchase NFT with ether.\n* @author Vinayak Shrivastava\n   \nOrganFactory.deployed().then(function(instance){return instance.getOrgan(0);}).then(function(v){console.log(v.toString(10));}).catch(function(e){ console.log(e) })  \n\n*/\n\ncontract OrganFactory {\n\n\tstruct Organ {\n\t\tstring name;\n\t\tuint256 donorId;\n\t\tuint256 refcode;\n\t\tuint256 hospitalId;\n\t\tbool isPurchased;\n\t}\n\n\tOrgan[] public organs;\n\n\t/* Events */\n\tevent OrganDonated(/**/); // params to be decided\n\n\t/* Mappings */\n\t// Mapping from organ id to hospital\n    mapping (uint => address) private organToHospital;\n    // Mapping from user to owned organs\n    mapping (address => uint256[]) private ownedOrgans;\n\n\n    /**\n\t*\t@dev Donate an organ and push into the blockchain\t\n\t\t \n    */\n    function donateOrgan( \n    \tstring _name,\n    \tuint256 _donorId,\n    \tuint256 _refcode,\n\t\tuint256 _hospitalId,\n\t\tbool _isPurchased\n    ) public returns (uint256) {\n    \tuint id = organs.push(Organ(_name,_refcode,_donorId,_hospitalId,_isPurchased)) - 1; // by default _isPurchased will be false\n    \t//emit OrganDonated(id); // decide params\n        return id;\n    }\n\n    /**\n\t\t@dev Get organ details\n\t\t\n    */\n\n    function getOrgan(uint256 _id) public view \n    returns(\n    \tstring,\n\t\tuint256,\n\t\tuint256,\n\t\tuint256,\n\t\tbool\n    ) {\n    \treturn (\n    \t\torgans[_id].name,\n    \t\torgans[_id].donorId,\n    \t\torgans[_id].refcode,\n    \t\torgans[_id].hospitalId,\n    \t\torgans[_id].isPurchased\n    \t);\n    }\n\n    function getIsPurchased(uint256 _id) public view returns (bool) {\n        return organs[_id].isPurchased;\n    }\n\n    function setIsPurchased(uint256 _id, bool _isPurchased) public {\n        organs[_id].isPurchased = _isPurchased;\n    }\n\n    function getAllOrgans() public view \n        returns(Organ[]) {  \n            return organs ;\n    }\n\n}\n\n\n",
  "sourcePath": "/home/vinayak/OrgainChain/contracts/OrganFactory.sol",
  "compiler": {
    "name": "solc",
    "version": "0.4.24+commit.e67f0147.Emscripten.clang"
  },
  "schemaVersion": "2.0.0",
  "updatedAt": "2018-06-17T14:33:39.800Z"
}