{
  "contractName": "OrganFactory",
  "abi": [
    {
      "constant": true,
      "inputs": [
        {
          "name": "",
          "type": "uint256"
        }
      ],
      "name": "organs",
      "outputs": [
        {
          "name": "name",
          "type": "string"
        },
        {
          "name": "donorId",
          "type": "uint256"
        },
        {
          "name": "refcode",
          "type": "uint256"
        },
        {
          "name": "hospitalId",
          "type": "uint256"
        },
        {
          "name": "isPurchased",
          "type": "bool"
        }
      ],
      "payable": false,
      "stateMutability": "view",
      "type": "function"
    },
    {
      "anonymous": false,
      "inputs": [],
      "name": "OrganDonated",
      "type": "event"
    },
    {
      "constant": false,
      "inputs": [
        {
          "name": "_name",
          "type": "string"
        },
        {
          "name": "_donorId",
          "type": "uint256"
        },
        {
          "name": "_refcode",
          "type": "uint256"
        },
        {
          "name": "_hospitalId",
          "type": "uint256"
        },
        {
          "name": "_isPurchased",
          "type": "bool"
        }
      ],
      "name": "donateOrgan",
      "outputs": [
        {
          "name": "",
          "type": "uint256"
        }
      ],
      "payable": false,
      "stateMutability": "nonpayable",
      "type": "function"
    },
    {
      "constant": true,
      "inputs": [
        {
          "name": "_id",
          "type": "uint256"
        }
      ],
      "name": "getOrgan",
      "outputs": [
        {
          "name": "",
          "type": "string"
        },
        {
          "name": "",
          "type": "uint256"
        },
        {
          "name": "",
          "type": "uint256"
        },
        {
          "name": "",
          "type": "uint256"
        },
        {
          "name": "",
          "type": "bool"
        }
      ],
      "payable": false,
      "stateMutability": "view",
      "type": "function"
    }
  ],
  "bytecode": "0x608060405234801561001057600080fd5b5061067b806100206000396000f300608060405260043610610057576000357c0100000000000000000000000000000000000000000000000000000000900463ffffffff16806310742b511461005c5780634fbd241d14610122578063a9af3220146101e8575b600080fd5b34801561006857600080fd5b506100876004803603810190808035906020019092919050505061028f565b604051808060200186815260200185815260200184815260200183151515158152602001828103825287818151815260200191508051906020019080838360005b838110156100e35780820151818401526020810190506100c8565b50505050905090810190601f1680156101105780820380516001836020036101000a031916815260200191505b50965050505050505060405180910390f35b34801561012e57600080fd5b5061014d600480360381019080803590602001909291905050506103f7565b604051808060200186815260200185815260200184815260200183151515158152602001828103825287818151815260200191508051906020019080838360005b838110156101a957808201518184015260208101905061018e565b50505050905090810190601f1680156101d65780820380516001836020036101000a031916815260200191505b50965050505050505060405180910390f35b3480156101f457600080fd5b50610279600480360381019080803590602001908201803590602001908080601f01602080910402602001604051908101604052809392919081815260200183838082843782019150505050505091929192908035906020019092919080359060200190929190803590602001909291908035151590602001909291905050506104e1565b6040518082815260200191505060405180910390f35b60606000806000806000868154811015156102a657fe5b90600052602060002090600502016000016000878154811015156102c657fe5b9060005260206000209060050201600101546000888154811015156102e757fe5b90600052602060002090600502016002015460008981548110151561030857fe5b90600052602060002090600502016003015460008a81548110151561032957fe5b906000526020600020906005020160040160009054906101000a900460ff16848054600181600116156101000203166002900480601f0160208091040260200160405190810160405280929190818152602001828054600181600116156101000203166002900480156103dd5780601f106103b2576101008083540402835291602001916103dd565b820191906000526020600020905b8154815290600101906020018083116103c057829003601f168201915b505050505094509450945094509450945091939590929450565b60008181548110151561040657fe5b9060005260206000209060050201600091509050806000018054600181600116156101000203166002900480601f0160208091040260200160405190810160405280929190818152602001828054600181600116156101000203166002900480156104b25780601f10610487576101008083540402835291602001916104b2565b820191906000526020600020905b81548152906001019060200180831161049557829003601f168201915b5050505050908060010154908060020154908060030154908060040160009054906101000a900460ff16905085565b6000806001600060a0604051908101604052808a81526020018881526020018981526020018781526020018615158152509080600181540180825580915050906001820390600052602060002090600502016000909192909190915060008201518160000190805190602001906105599291906105aa565b5060208201518160010155604082015181600201556060820151816003015560808201518160040160006101000a81548160ff02191690831515021790555050500390508091505095945050505050565b828054600181600116156101000203166002900490600052602060002090601f016020900481019282601f106105eb57805160ff1916838001178555610619565b82800160010185558215610619579182015b828111156106185782518255916020019190600101906105fd565b5b509050610626919061062a565b5090565b61064c91905b80821115610648576000816000905550600101610630565b5090565b905600a165627a7a723058208ccbf364feb85d8aa689a3b9f93fbc3f7ef591b16e23de8f0a49f69d11e2f2c50029",
  "source": "pragma solidity ^0.4.19;\n\n/**\n* @title Organ Factory\n* @dev TicketFactory is a contract for managing the token ownership,\n* allowing the participants to purchase NFT with ether.\n* @author Vinayak Shrivastava\n*/\n\ncontract OrganFactory {\n\n\tstruct Organ {\n\t\tstring name;\n\t\tuint256 donorId;\n\t\tuint256 refcode;\n\t\tuint256 hospitalId;\n\t\tbool isPurchased;\n\t}\n\n\tOrgan[] public organs;\n\n\t/* Events */\n\tevent OrganDonated(/**/); // params to be decided\n\n\t/* Mappings */\n\t// Mapping from organ id to hospital\n    mapping (uint => address) private organToHospital;\n    // Mapping from user to owned organs\n    mapping (address => uint256[]) private ownedOrgans;\n\n\n    /**\n\t*\t@dev Donate an organ and push into the blockchain\t\n\t\t \n    */\n    function donateOrgan( \n    \tstring _name,\n    \tuint256 _donorId,\n    \tuint256 _refcode,\n\t\tuint256 _hospitalId,\n\t\tbool _isPurchased\n    ) public returns (uint256) {\n    \tuint id = organs.push(Organ(_name,_refcode,_donorId,_hospitalId,_isPurchased)) - 1; // by default _isPurchased will be false\n    \t//emit OrganDonated(id); // decide params\n        return id;\n    }\n\n    /**\n\t\t@dev Get organ details\n\t\t\n    */\n\n    function getOrgan(uint256 _id) public view \n    returns(\n    \tstring,\n\t\tuint256,\n\t\tuint256,\n\t\tuint256,\n\t\tbool\n    ) {\n    \treturn (\n    \t\torgans[_id].name,\n    \t\torgans[_id].donorId,\n    \t\torgans[_id].refcode,\n    \t\torgans[_id].hospitalId,\n    \t\torgans[_id].isPurchased\n    \t);\n    }\n\n}\n",
  "sourcePath": "/home/vinayak/OrgainChain/contracts/OrganFactory.sol",
  "compiler": {
    "name": "solc",
    "version": "0.4.24+commit.e67f0147.Emscripten.clang"
  },
  "schemaVersion": "2.0.0",
  "updatedAt": "2018-06-17T12:34:38.671Z"
}